:100000000C94DF160C9410170C9410170C94101706
:100010000C9410170C9410170C9410170C941017C4
:100020000C9410170C9410170C9410170C941017B4
:100030000C9410170C9410170C9410170C941017A4
:100040000C9410170C9410170C9410170C94101794
:100050000C9410170C9410170C9410170C94A83FC4
:100060000C9410170C9431380C9408380C94101719
:100070000C9410170C9410170C9410170C94101764
:100080000C9410170C9410170C9410170C94101754
:100090000C9410170C9410170C9410170C948125C5
:1000A0000C9410170C9410170C9410170C94101734
:1000B0000C9410170C9410170C9410170C94101724
:1000C0000C9410170C9410170C9410170C94101714
:1000D0000C9410170C9410170C9410170C94101704
:1000E0000C9410173D3940392F3933393939773964
:1000F000443948394E39523956395C396039643996
:1001000077396A396E39723900407A10F35A00A093
:10011000724E18090010A5D4E80000E876481700D0
:1001200000E40B54020000CA9A3B000000E1F50510
:10013000000080969800000040420F000000A0865A
:1001400001000000102700000000E803000000008C
:100150006400000000000A00000000000100000030
:1001600000002C76D888DC674F0823DFC1DFAE594A
:10017000E1B1B796E5E3E453C63AE651997696E8DD
:10018000E6C28426EB898C9B62ED407C6FFCEFBC61
:100190009C9F40F2BAA56FA5F490055A2AF75C938C
:1001A0006B6CF9676DC11BFCE0E40D47FEF520E6C2
:1001B000B500D0ED902E0300943577050080841EA5
:1001C000080000204E0A000000C80C333333330F00
:1001D000986E12831141EF8D2114893BE65516CF9D
:1001E000FEE6DB18D1844B381BF77C1D901DA4BBA9
:1001F000E424203284725E228100C9F124ECA1E55E
:100200003D273C70207374796C653D227465787469
:100210002D616C69676E3A2063656E7465723B226E
:100220003E3C7374726F6E673E3C7370616E2073F8
:1002300074796C653D22636F6C6F723A2023666639
:10024000303030303B223E526566657220746F203C
:100250004D616E75616C20666F722066756C6C20E6
:10026000736574206F6620636F6D6D616E64733C9F
:100270002F7370616E3E3C2F7374726F6E673E3CDD
:100280002F703E003C2F7374726F6E673E3C2F657B
:100290006D3E3C2F74643E3C2F74723E3C2F746262
:1002A0006F64793E3C2F7461626C653E003C7464FF
:1002B000207374796C653D2277696474683A2032E2
:1002C00032342E3570783B20746578742D616C69FA
:1002D000676E3A206C6566743B223E3C656D3E3C21
:1002E0007374726F6E673E003C7464207374796C33
:1002F000653D2277696474683A203235312E357055
:10030000783B20746578742D616C69676E3A207251
:10031000696768743B223E3C656D3E3C7374726F46
:100320006E673E437573746F6D204C696E6B7320FE
:10033000436F6D6D616E6473206174203A3C2F735E
:1003400074726F6E673E3C2F656D3E3C2F74643E49
:1003500020003C2F7374726F6E673E3C2F656D3EBC
:100360003C2F74643E3C2F74723E3C74723E003CE1
:100370007464207374796C653D2277696474683A9B
:10038000203232342E3570783B20746578742D61BC
:100390006C69676E3A206C6566743B223E3C656D05
:1003A0003E3C7374726F6E673E003C7464207374DD
:1003B000796C653D2277696474683A203235312E54
:1003C0003570783B20746578742D616C69676E3A7E
:1003D0002072696768743B223E3C656D3E3C7374D5
:1003E000726F6E673E437573746F6D204C696E6BF0
:1003F00073205265706F72746564206174203A3C9A
:100400002F7374726F6E673E3C2F656D3E3C2F7488
:10041000643E20003C2F7374726F6E673E3C2F6504
:100420006D3E3C2F74643E3C2F74723E3C74723EB1
:10043000003C7464207374796C653D227769647440
:10044000683A203232342E3570783B2074657874E7
:100450002D616C69676E3A206C6566743B223E3C88
:10046000656D3E3C7374726F6E673E003C74642031
:100470007374796C653D2277696474683A2033300F
:10048000302E3570783B20746578742D616C696707
:100490006E3A2072696768743B223E3C656D3E3C53
:1004A0007374726F6E673E4D61696E20746F706910
:1004B000632063616E206265206368616E676564B6
:1004C000206174203A3C2F7374726F6E673E3C2F2C
:1004D000656D3E3C2F74643E20003C2F7374726F38
:1004E0006E673E3C2F656D3E3C2F74643E3C2F741E
:1004F000723E3C74723E003C7464207374796C6587
:100500003D2277696474683A203232342E3570782F
:100510003B20746578742D616C69676E3A206C6558
:1005200066743B223E3C656D3E3C7374726F6E6731
:100530003E003C7464207374796C653D2277696475
:1005400074683A203235312E3570783B20746578E6
:10055000742D616C69676E3A2072696768743B221A
:100560003E3C656D3E3C7374726F6E673E4C6173CA
:10057000742077696C6C20616E642074657374619B
:100580006D656E74203A3C2F7374726F6E673E3CDB
:100590002F656D3E3C2F74643E20003C2F737472B7
:1005A0006F6E673E3C2F656D3E3C2F74643E3C2F62
:1005B00074723E3C74723E003C7464207374796CB7
:1005C000653D2277696474683A203232342E357082
:1005D000783B20746578742D616C69676E3A206C85
:1005E0006566743B223E3C656D3E3C7374726F6E73
:1005F000673E003C7464207374796C653D227769B2
:100600006474683A203235312E3570783B20746539
:1006100078742D616C69676E3A2072696768743B03
:10062000223E3C656D3E3C7374726F6E673E537440
:1006300061747573206F6620496E707574205069FF
:100640006E73203A3C2F7374726F6E673E3C2F6559
:100650006D3E3C2F74643E20003C2F7374726F6EAD
:10066000673E3C2F656D3E3C2F74643E3C2F747298
:100670003E3C74723E003C7464207374796C653D3A
:100680002277696474683A203232342E3570783BB0
:1006900020746578742D616C69676E3A206C6566AC
:1006A000743B223E3C656D3E3C7374726F6E673ED8
:1006B000003C7464207374796C653D2277696474BE
:1006C000683A203235312E3570783B207465787465
:1006D0002D616C69676E3A2072696768743B223ECF
:1006E0003C656D3E3C7374726F6E673E537461740B
:1006F0007573206F662072656C6179206973207252
:1007000065706F72746564206F6E203A3C2F73744D
:10071000726F6E673E3C2F656D3E3C2F74643E20C9
:10072000003C7464207374796C653D22776964744D
:10073000683A203232342E3570783B2074657874F4
:100740002D616C69676E3A206C6566743B223E3C95
:10075000656D3E3C7374726F6E673E20202D205491
:100760006F67676C653C2F7374726F6E673E3C2FCA
:10077000656D3E3C2F74643E3C2F74723E3C747237
:100780003E20003C7464207374796C653D22776967
:100790006474683A203235312E3570783B207465A8
:1007A00078742D616C69676E3A2072696768743B72
:1007B000223E3C656D3E3C7374726F6E673E5768B7
:1007C000657265202F504F57455231203D20323CF5
:1007D0002F7374726F6E673E3C2F656D3E3C2F74B5
:1007E000643E20003C7464207374796C653D22770C
:1007F000696474683A203232342E3570783B207444
:100800006578742D616C69676E3A206C6566743B1F
:10081000223E3C656D3E3C7374726F6E673E266E81
:100820006273703B20202D204F46463C2F7374721C
:100830006F6E673E3C2F656D3E3C2F74643E3C2FCF
:1008400074723E3C74723E20003C74642073747970
:100850006C653D2277696474683A203235312E35F3
:1008600070783B20746578742D616C69676E3A20EE
:1008700072696768743B223E3C656D3E3C737472DE
:100880006F6E673E5768657265202F504F5745520F
:1008900031203D20303C2F7374726F6E673E3C2FC9
:1008A000656D3E3C2F74643E20003C74642073747C
:1008B000796C653D2277696474683A203236302E4F
:1008C0003570783B20746578742D616C69676E3A79
:1008D000206C6566743B223E3C656D3E3C737472D1
:1008E0006F6E673E266E6273703B20202D204F4E48
:1008F0003C2F7374726F6E673E3C2F656D3E3C2FCC
:1009000074643E3C2F74723E3C74723E003C7464CE
:10091000207374796C653D2277696474683A20327B
:1009200036302E3570783B20746578742D616C6993
:10093000676E3A2072696768743B223E3C656D3E83
:100940003C7374726F6E673E5768657265202F50F6
:100950004F57455231203D266E6273703B313C2F1C
:100960007374726F6E673E3C2F656D3E3C2F7464EE
:100970003E20003C2F7374726F6E673E3C2F656D96
:100980003E3C2F74643E3C2F74723E3C74723E00B9
:100990003C7464207374796C653D22776964746873
:1009A0003A203232342E3570783B20746578742DBD
:1009B000616C69676E3A206C6566743B223E3C65EB
:1009C0006D3E3C7374726F6E673E003C74642073BE
:1009D00074796C653D2277696474683A20323531E8
:1009E0002E3570783B20746578742D616C69676E64
:1009F0003A2072696768743B223E3C656D3E3C73E9
:100A000074726F6E673E47656E6572616C20696EC9
:100A1000666F266E6273703B546F706963203A3C58
:100A20002F7374726F6E673E3C2F656D3E3C2F7462
:100A3000643E003C7461626C65207374796C653D42
:100A4000226865696768743A2032313070783B20DB
:100A50006D617267696E2D6C6566743A206175749C
:100A60006F3B206D617267696E2D72696768743AB9
:100A7000206175746F3B2077696474683A2034395B
:100A80003070783B223E3C74626F64793E3C7472F5
:100A90003E20003C70207374796C653D227465784B
:100AA000742D616C69676E3A2063656E7465723B84
:100AB000223E3C656D3E3C7374726F6E673E546FB0
:100AC0007069637320666F72204D515454205365D2
:100AD000727665723C2F7374726F6E673E3C2F6541
:100AE0006D3E3C2F703E200020253C2F7374726FAA
:100AF0006E673E3C2F656D3E3C2F703E20003C747F
:100B000061626C65206267636F6C6F723D22233097
:100B100030393739642220626F726465723D223049
:100B2000222077696474683D2231303025222063A9
:100B3000656C6C70616464696E673D2233223E3C73
:100B400074723E3C74642077696474683D3130355A
:100B500070783E3C2F74643E003C74642077696476
:100B600074683D32303070783E3C666F6E7420633E
:100B70006F6C6F723D222330303937396422207315
:100B8000697A653D22362220666163653D2256659D
:100B90007264616E61223E3C7374726F6E673E20B8
:100BA00041524455494E4F3C2F7374726F6E673EED
:100BB0003C2F666F6E743E3C2F74643E3C74643E02
:100BC000266E6273703C2F74643E3C2F74723E3C00
:100BD0002F7461626C653E3C62723E003C2F666F12
:100BE0006E743E3C2F7072653E3C2F74643E3C74C4
:100BF000643E266E6273703C2F74643E3C2F7472A8
:100C00003E3C74723E3C74642077696474683D3184
:100C1000313070783E266E6273703C2F74643E00F3
:100C20003C62723E202020232323232320202020E7
:100C300023232323232020003C62723E20202323F1
:100C40002020202323202023232020202323202092
:100C5000003C62723E2023232020202020232323D7
:100C6000232020232020232320003C62723E2023C7
:100C70002020232323202023232020232323202359
:100C80002320003C62723E202323202020202023AA
:100C90002323232020232020232320003C62723E94
:100CA0002020232320202023232020232320202032
:100CB00023232020003C62723E2020202023232377
:100CC000202020202020232323202020544D2000DA
:100CD0003C7072653E3C666F6E7420636F6C6F7221
:100CE0003D2223303039373964223E003C74616242
:100CF0006C6520626F726465723D223022207769D4
:100D00006474683D2231303025223E3C74723E3C92
:100D100074642077696474683D31313070783E26A0
:100D20006E6273703C2F74643E3C74642077696417
:100D300074683D32303070783E3C7374796C653E37
:100D4000707265207B666F6E742D73697A653A38B0
:100D500070743B206C65747465722D737061636987
:100D60006E673A3270783B206C696E652D686569F4
:100D70006768743A3870743B20666F6E742D7765BF
:100D8000696768743A626F6C643B7D3C2F73747959
:100D90006C653E003C74723E3C74643E3C666F6E13
:100DA0007420636F6C6F723D2277686974652220CE
:100DB00073697A653D22322220666163653D225661
:100DC000657264616E61223E266E627370204172AC
:100DD0006475696E6F2045746865726E6574205322
:100DE0006869656C642073657475702070616765EF
:100DF0003C2F666F6E743E3C2F74643E3C2F7472C1
:100E00003E3C2F7461626C653E3C62723E003C74F5
:100E100061626C65206267636F6C6F723D2223397B
:100E200039393939392220626F726465723D223056
:100E3000222077696474683D223130302522206396
:100E4000656C6C70616464696E673D2231223E009E
:100E50003C68746D6C3E3C626F6479206D617267B2
:100E6000696E7769647468223022206D61726769E7
:100E70006E6865696768743D22302220746F706DFA
:100E8000617267696E3D223022206C6566746D6107
:100E90007267696E3D223022207374796C653D2241
:100EA0006D617267696E3A20303B207061646469DD
:100EB0006E673A20303B223E00646F63756D656E4D
:100EC000742E676574456C656D656E74427949640E
:100ED000282754313227292E76616C7565203D20F4
:100EE000686578326E756D28646F63756D656E74B4
:100EF0002E676574456C656D656E7442794964282A
:100F00002754313127292E76616C7565293B2200E3
:100F1000646F63756D656E742E676574456C656D81
:100F2000656E7442794964282754313027292E761A
:100F3000616C7565203D20686578326E756D28643A
:100F40006F63756D656E742E676574456C656D6550
:100F50006E74427949642827543927292E76616CAA
:100F60007565293B00646F63756D656E742E6765EA
:100F700074456C656D656E744279496428275438F0
:100F800027292E76616C7565203D20686578326E64
:100F9000756D28646F63756D656E742E6765744535
:100FA0006C656D656E74427949642827543727292A
:100FB0002E76616C7565293B00646F63756D656E97
:100FC000742E676574456C656D656E74427949640D
:100FD0002827543627292E76616C7565203D2068B8
:100FE0006578326E756D28646F63756D656E742EED
:100FF000676574456C656D656E7442794964282730
:10100000543527292E76616C7565293B00646F6322
:10101000756D656E742E676574456C656D656E746F
:10102000427949642827543427292E76616C7565E6
:10103000203D20686578326E756D28646F63756D2C
:10104000656E742E676574456C656D656E74427966
:1010500049642827543327292E76616C7565293B0E
:10106000003D20686578326E756D28646F63756D1C
:10107000656E742E676574456C656D656E74427936
:1010800049642827543127292E76616C7565293BE0
:10109000004F6E636C69636B3D22646F63756D65B1
:1010A0006E742E676574456C656D656E7442794922
:1010B000642827543227292E76616C756520003EFE
:1010C0003C2F74643E3C2F74723E3C2F666F726DF1
:1010D0003E3C2F7461626C653E3C2F626F64793ECA
:1010E0003C2F68746D6C3E00223E3C2F74643E3C85
:1010F0002F74723E3C74723E3C74643E3C62723E9D
:101100003C2F74643E3C2F74723E3C74723E3C74BF
:10111000643E3C696E7075742069643D226275742A
:10112000746F6E3122747970653D227375626D69DA
:1011300074222076616C75653D225355424D4954A9
:10114000222000223E2E3C696E70757420747970E6
:10115000653D2274657874222073697A653D223278
:1011600022206D61786C656E6774683D22332220A1
:101170006E616D653D2244543232222076616C7579
:10118000653D2200223E2E3C696E70757420747994
:1011900070653D2274657874222073697A653D22FA
:1011A0003222206D61786C656E6774683D2233224F
:1011B000206E616D653D2244543231222076616C8F
:1011C00075653D2200223E2E3C696E707574207458
:1011D0007970653D2274657874222073697A653D63
:1011E000223222206D61786C656E6774683D22330F
:1011F00022206E616D653D2244543230222076619A
:101200006C75653D2200223E3C2F74643E3C2F7479
:10121000723E3C74723E3C74643E4D5154543A3CB0
:101220002F74643E3C74643E3C696E707574207427
:101230007970653D2274657874222073697A653D02
:10124000223222206D61786C656E6774683D2233AE
:1012500022206E616D653D22445431392220766131
:101260006C75653D2200223E2E3C696E70757420BF
:10127000747970653D2274657874222073697A658B
:101280003D223222206D61786C656E6774683D2264
:101290003322206E616D653D224454313822207620
:1012A000616C75653D2200223E2E3C696E7075743E
:1012B00020747970653D2274657874222073697A90
:1012C000653D223222206D61786C656E6774683DE1
:1012D000223322206E616D653D2244543137222035
:1012E00076616C75653D2200223E2E3C696E7075FC
:1012F0007420747970653D22746578742220736956
:101300007A653D223222206D61786C656E67746863
:101310003D223322206E616D653D224454313622D8
:101320002076616C75653D2200223E3C2F74643E40
:101330003C2F74723E3C74723E3C74643E47415490
:10134000455741593A3C2F74643E3C74643E3C69B5
:101350006E70757420747970653D2274657874229E
:101360002073697A653D223222206D61786C656E4A
:101370006774683D223322206E616D653D224454BE
:101380003135222076616C75653D2200223E2E3C6F
:10139000696E70757420747970653D227465787417
:1013A000222073697A653D223222206D61786C6556
:1013B0006E6774683D223322206E616D653D224464
:1013C000543134222076616C75653D2200223E2E18
:1013D0003C696E70757420747970653D227465780F
:1013E00074222073697A653D223222206D61786C07
:1013F000656E6774683D223322206E616D653D2203
:1014000044543133222076616C75653D2200223EC2
:101410002E3C696E70757420747970653D22746518
:101420007874222073697A653D223222206D6178BA
:101430006C656E6774683D223322206E616D653D78
:101440002244543132222076616C75653D2200229F
:101450003E3C2F74643E3C2F74723E3C74723E3CA2
:101460002F74723E3C74723E3C74643E5355424E3F
:1014700045543A3C2F74643E3C74643E3C696E7043
:10148000757420747970653D2274657874222073B8
:10149000697A653D223222206D61786C656E6774D1
:1014A000683D223322206E616D653D224454313106
:1014B000222076616C75653D2200223E2E3C696ECD
:1014C00070757420747970653D227465787422207B
:1014D00073697A653D223222206D61786C656E6792
:1014E00074683D223322206E616D653D2244543183
:1014F00030222076616C75653D2200223E2E3C69CB
:101500006E70757420747970653D227465787422EC
:101510002073697A653D223222206D61786C656E98
:101520006774683D223322206E616D653D2244540C
:1015300039222076616C75653D2200223E2E3C6981
:101540006E70757420747970653D227465787422AC
:101550002073697A653D223222206D61786C656E58
:101560006774683D223322206E616D653D224454CC
:1015700038222076616C75653D22005436223E3C4F
:101580002F74643E3C2F74723E3C74723E3C746413
:10159000207374796C653D2277696474683A2036EB
:1015A0003470783B223E4950204144523A3C2F74DB
:1015B000643E3C74643E3C696E707574207479704E
:1015C000653D2274657874222073697A653D223204
:1015D00022206D61786C656E6774683D223322202D
:1015E0006E616D653D22445437222076616C7565CD
:1015F0003D2200223E3C696E7075742069643D2274
:101600005431302220747970653D226869646465C4
:101610006E22206E616D653D22445435223E3C6948
:101620006E7075742069643D2254313222207479C1
:1016300070653D2268696464656E22206E616D6527
:101640003D224400223E3C696E7075742069643D01
:101650002254362220747970653D2268696464657D
:101660006E22206E616D653D22445433223E3C69FA
:101670006E7075742069643D22543822207479702C
:10168000653D2268696464656E22206E616D653D0A
:101690002244543400223E3C696E707574206964A3
:1016A0003D2254322220747970653D226869646459
:1016B000656E22206E616D653D22445431223E3CB0
:1016C000696E7075742069643D22543422207479E7
:1016D00070653D2268696464656E22206E616D6587
:1016E0003D2244543200223E2E3C696E70757420B7
:1016F00069643D225431312220747970653D227431
:10170000657874222073697A653D223222206D61EA
:10171000786C656E6774683D223222206E616D655B
:101720003D22445436222076616C75653D220022AC
:101730003E2E3C696E7075742069643D22543922D6
:1017400020747970653D2274657874222073697AFB
:10175000653D223222206D61786C656E6774683D4C
:10176000223222206E616D653D224454352220765E
:10177000616C75653D2200223E2E3C696E70757469
:101780002069643D2254372220747970653D2274AB
:10179000657874222073697A653D223222206D615A
:1017A000786C656E6774683D223222206E616D65CB
:1017B0003D22445434222076616C75653D2200221E
:1017C0003E2E3C696E7075742069643D225435224A
:1017D00020747970653D2274657874222073697A6B
:1017E000653D223222206D61786C656E6774683DBC
:1017F000223222206E616D653D22445433222076D0
:10180000616C75653D2200223E2E3C696E707574D8
:101810002069643D2254332220747970653D22741E
:10182000657874222073697A653D223222206D61C9
:10183000786C656E6774683D223222206E616D653A
:101840003D22445432222076616C75653D22003C75
:101850007464207374796C653D2277696474683AA6
:101860002033353070783B223E3C696E70757420B1
:1018700069643D2254312220747970653D2274657B
:101880007874222073697A653D223222206D617856
:101890006C656E6774683D223222206E616D653D15
:1018A00022445431222076616C75653D22003C2F24
:1018B0007363726970743E3C7461626C653E3C6631
:1018C0006F726D3E3C696E70757420747970653D01
:1018D0002268696464656E22206E616D653D2253E5
:1018E000424D222076616C75653D2231223E3C746A
:1018F000723E3C7464207374796C653D2277696430
:1019000074683A20363470783B223E4D41433A3C6D
:101910002F74643E003C7363726970743E66756E2A
:101920006374696F6E20686578326E756D202873F8
:101930005F68657829207B6576616C282276617204
:10194000206E5F6E756D3D305822202B20735F68CE
:101950006578293B72657475726E206E5F6E756D69
:101960003B7D006666663B666F6E742D73697A65B3
:101970003A323470783B223E3C74723E3C68323ED0
:101980003C74643E266E6273702041726475696EA9
:101990006F2045746865726E657420536574757048
:1019A00020506167653C2F74643E3C68323E3C2F9A
:1019B00074723E3C2F7461626C653E3C62723E0004
:1019C0003D2230222077696474683D223130302511
:1019D000222063656C6C70616464696E673D2231BE
:1019E00022207374796C653D22666F6E742D66617A
:1019F0006D696C793A56657264616E613B636F6CB8
:101A00006F723A23666666006C6566746D61726714
:101A1000696E3D223122207374796C653D226D61BF
:101A20007267696E3A20303B2070616464696E674A
:101A30003A20313B223E3C7461626C6520626763F0
:101A40006F6C6F723D222331374131413522206264
:101A50006F72646572003C68746D6C3E3C746974AE
:101A60006C653E41726475696E6F2045746865727D
:101A70006E657420536574757020506167653C2FE6
:101A80007469746C653E3C626F6479206D61726745
:101A9000696E77696474683D22313022206D61720D
:101AA00067696E6865696768743D2231302220007D
:101AB00043757272656E74204970004F6E6C696E6A
:101AC00065004D5154543A2000436F6E6E65637447
:101AD000696E67004D5154543A0048756D3A005490
:101AE000656D703A00840202025203E802AD0214EE
:101AF00004AA036F03DA046C0431049B053205F772
:101B0000045906F305B80573090D09AA084908E444
:101B10000783072107B1067606E80A930A330ACB42
:101B2000099009500E0E0E940DEC0CD00CB50C9CC7
:101B30000C830C6A0C510C380C200CDC0B590BFE7E
:101B40000A911061100D10B90F650F100FB90E0634
:101B500012C51184114311E810BF102913E812A710
:101B60001266124F140E14CD138C1395164416F3EF
:101B7000157B153B15FB14BA141519AE184F180731
:101B800018BF1777172F17E616561A081AC01963C9
:101B900019207F010100000000000000000000008B
:101BA0005F00000000000700000007000000227F27
:101BB00022227F220000242A6B2A12000000221019
:101BC0000804220000205649495620500000000019
:101BD000070000000000001C22410000000000413E
:101BE000221C000000002A1C7F1C2A00000008089C
:101BF0003E08080000000040300000000000080817
:101C00000808080800000000606000000000402094
:101C10001008040200003E5149453E0000004042C9
:101C20007F404000000062514949460000002241C7
:101C30004949360000001C12517F50000000274522
:101C40004545390000003C4A494930000000010187
:101C5000790503000000364949493600000006496D
:101C600049291E0000000000120000000000004092
:101C7000320000000000000814224100000014148B
:101C80001414141400000041221408000000020182
:101C900059090600003C4299A5A5B9221C007E09FD
:101CA00009097E0000007F494949360000003E4195
:101CB0004141220000007F4141413E0000007F4938
:101CC0004941410000007F090909010000003E412F
:101CD00041493A0000007F0808087F0000000041E9
:101CE0007F4100000000204040403F0000007F088E
:101CF0001422410000007F404040400000007F026D
:101D000004027F0000007F0408107F0000003E41B5
:101D100041413E0000007F090909060000003E41E4
:101D20006141BE0000007F091929460000002649D4
:101D300049493200000001017F01010000003F40DD
:101D400040403F0000001F2040201F0000007F2077
:101D500010207F00000063140814630000000708CF
:101D60007008070000006151494543000000007FF2
:101D70004141000000000204081020400000000063
:101D800041417F00000000040201020400808080C5
:101D9000808080808000000001020000000020544C
:101DA0005454780000007F44444438000000384414
:101DB000444428000000384444447F000000385464
:101DC00054544800000000047E050500000018A4DB
:101DD000A4A47C0000007F040404780000000044F8
:101DE0007D4000000000408080847D0000007F1066
:101DF00010284400000000417F40000000007C04E7
:101E00007804780000007C04040478000000384462
:101E1000444438000000FC44444438000000384486
:101E20004444FC0000007C08040404000000485402
:101E300054542400000000043F44000000003C40D3
:101E400040207C0000001C2040201C0000001C6082
:101E50001C601C00000044281028440000001CA046
:101E6000A0A07C0000004464544C44000000000822
:101E70003641000000000000FF00000000000041AB
:101E800036080000000804040810100800000000D4
:101E9000000000000020FF01020000000000000020
:101EA00000000000000000000000000000F800003A
:101EB00000000000001B0000000000003C003C008F
:101EC000000000000000000000000040F840F84062
:101ED000000000021F021F020000609010F8106056
:101EE00000000C10113F110E0000304848F020187F
:101EF000000018040F12120C000000708888700097
:101F000000000E11110A0C1300000000003C00003C
:101F1000000000000000000000000000C0300804C5
:101F20000000000007182040000000040830C00036
:101F300000000040201807000000004080E08040C2
:101F400000000004020F02040000000000E0000096
:101F500000000001010F010100000000000000006E
:101F600000000000483800000000000000000000F1
:101F7000000000010101010100000000000000005C
:101F800000000000103810000000000000C0300CFD
:101F900000006018060100000000E010080810E0D2
:101FA00000000708101008070000002010F80000CB
:101FB00000000010101F1010000030080808887082
:101FC00000001018141211100000080888C8A81882
:101FD00000000C101010100F000000806010F800BE
:101FE0000000060504041F040000F848484848881B
:101FF00000000C101010100F0000E01088888800FE
:1020000000000F111010100F000008080888681851
:1020100000000018060100000000304888884830A1
:1020200000000E111010110E0000F008080888F0D2
:1020300000000C11111108070000000040E04000F2
:1020400000000000081C080000000000C0C00000E4
:1020500000000000241C0000000000008040201050
:1020600000000001020408100000404040404040D1
:102070000000020202020202000000102040800064
:1020800000000010080402010000300808884830F1
:1020900000000000001B00000000E010C82828F02D
:1020A00000000708131414170000E010080810E0DF
:1020B00000001F010101011F0000F88888885020DE
:1020C00000001F10101009060000F0080808083072
:1020D00000000F101010100C0000F808080810E0A5
:1020E00000001F10101008070000F88888880808F2
:1020F00000001F10101010100000F88888880808D1
:1021000000001F00000000000000F0080808083070
:1021100000000F101011091F0000F880808080F867
:1021200000001F000000001F0000000808F8080859
:1021300000000010101F1010000000000008F80838
:1021400000000C1010100F000000F8804020100854
:1021500000001F00010204180000F8000000000049
:1021600000001F10101010100000F830C0C030F830
:1021700000001F000000001F0000F860800000F851
:1021800000001F000001061F0000F008080808F00A
:1021900000000F101010100F0000F808080808F0D9
:1021A00000001F01010101000000F008080808F00C
:1021B00000000F121214384F0000F808080808F049
:1021C00000001F010103051800007088880808300E
:1021D00000000C101011110E0000080808F8080883
:1021E00008000000001F00000000F800000000F8D8
:1021F00000000F101010100F000078800000807891
:10220000000000031C1C0300000000F8000000F8A0
:102210000000000F100E100F000018608080601882
:10222000000018060101061800000038C000C03880
:1022300000000000001F00000000080808C828185F
:10224000000018161110101000000000FC04040417
:10225000000000007F40404000000C30C000000043
:102260000000000001061860000000040404FC00E7
:102270000000004040407F000000100804040810E7
:10228000000000000000000000000000000000004E
:1022900000004040404040400000000004081000A2
:1022A000000000000000000000008040404040802E
:1022B00000000C121212121F0000F88040404080F3
:1022C00000001F081010100F0000804040404080A8
:1022D00000000F101010100800008040404080F8EF
:1022E00000000F101010081F000080404040408088
:1022F00000000F121212120B00008080F08888106C
:10230000000000001F0000000000804040408040AE
:102310000000334C545453200000F880404040806B
:1023200000001F000000001F0000000040D8000057
:1023300000000010101F101000000000000040D826
:10234000000000304040403F0000F80000804000A6
:1023500000001F02030408100000000008F800003D
:1023600000000010101F1010000000C040804080CE
:102370000000001F000F001F0000C0804040408090
:1023800000001F000000001F00008040404040800F
:1023900000000F101010100F0000C080404040805F
:1023A00000007F081010100F00008040404080C0E7
:1023B00000000F101010087F0000C08040404080D7
:1023C00000001F00000000010000804040404080ED
:1023D000000008111212140800004040F8404000AC
:1023E000000000000F1010080000C000000000C036
:1023F00000000F101010081F000000C0000000C0F7
:102400000000000106180601000000C0000000C026
:102410000000000F100F100F0000C000000000C0EF
:1024200000001805020205180000C000000000C0EE
:10243000000027484848443F000040404040C0401A
:1024400000001018161110100000000000F804041D
:1024500000000000013E40400000000000FC0000C1
:1024600000000000007F00000000000404F80000ED
:1024700000000040403E0100000018040810201831
:10248000000000000000000000000000000000004C
:10249000000000000000000000000000000000003C
:1024A000000000000000000000000000000000002C
:1024B000000000000000000000000000000000001C
:1026A00000000000000000000000000000D8000052
:1026B00000000000001F000000008040E04040805B
:1026C00000000F103F10100800000000E010102064
:1026D000000000091F090910000020C04040C02070
:1026E000000004030202030400000088B0C0B088A8
:1026F00000000002021F020200000000007800003B
:1027000000000000001E00000000885424244488BB
:1027100000000811121215080000000C00000C0047
:1027200000000000000000000000F8E4141424F889
:1027300000000F131414120F00000068949454F852
:1027400000000002020202020000000080408040FF
:10275000000002050A15081000000000000000003B
:10276000000000020202021E000000000000000043
:1027700000000001010101000000F8F4949464F8E5
:1027800000000F171010170F0000000808080808B5
:1027900000000000000000000000001824241800C1
:1027A00000000000000000000000000000800000A9
:1027B00000000012121F12120000008844241800AA
:1027C0000000000101010100000000882424D8005D
:1027D00000000000010100000000000010080400DB
:1027E00000000000000000000000008000000080E9
:1027F0000000007F0810081F000000F008F808F82B
:1028000000000000017F407F000000000080000009
:1028100000000000000000000000000000000000B8
:1028200000000000403000000000000008FC000034
:1028300000000000010101000000003048483000A5
:102840000000000101010100000040804080000004
:1028500000001008150A0502000010F80080601042
:1028600000001804030C0A1F000010F8008060101C
:102870000000180403121916000088A850C0201880
:1028800000000806010C0A1F00000000B000000054
:1028900000003048474040300000C020121420C0E3
:1028A00000001F010101011F0000C020141220C000
:1028B00000001F010101011F0000C024121224C0EA
:1028C00000001F010101011F0000C422121424C2D4
:1028D00000001F010101011F0000C024101024C0CE
:1028E00000001F010101011F0000C028141428C0AE
:1028F00000001F010101011F0000E09088F8888896
:1029000000001F00001F10100000F0080808083029
:1029100000000F105030100C0000F01012141010B6
:1029200000001F11111111100000F01014121010EE
:1029300000001F11111111100000F01412121410D8
:1029400000001F11111111100000F01410101410CC
:1029500000001F11111111100000001012F41010CE
:1029600000000010101F10100000001010F41210D2
:1029700000000010101F10100000001014F21410BE
:1029800000000010101F10100000001014F01410B0
:1029900000000010101F1010000080F88888081038
:1029A000E000001F101010080700F432C20404F207
:1029B00000001F000007181F0000E010121410E0B4
:1029C00000000F101010100F0000E010141210E0A3
:1029D00000000F101010100F0000E014121214E08D
:1029E00000000F101010100F0000E412121414E277
:1029F00000000F101010100F0000E014101014E071
:102A000000000F101010100F000040800000008028
:102A100040001008050205081000F00808E818F644
:102A200000006F181710100F0000F000020400F0F3
:102A300000000F101010100F0000F000040200F052
:102A400000000F101010100F0000F004020204F03C
:102A500000000F101010100F0000F004000004F030
:102A600000000F101010100F00000030C004C23022
:102A700000000000001F00000000F820202020C0FF
:102A800000001F0404040403000000F088887000A4
:102A90000000101F1010110E0000804048504080B0
:102AA00000000C121212121F00008040405048809B
:102AB00000000C121212121F000080504848508073
:102AC00000000C121212121F00009048485050884B
:102AD00000000C121212121F000080504040508063
:102AE00000000C121212121F00008048545448803B
:102AF00000000C121212121F0000804040C0404023
:102B000080000C12111F12120B00804040404080C8
:102B100000000F10503010080000804048504080E6
:102B200000000F121212120B00008040504840802B
:102B300000000F121212120B000080504848508003
:102B400000000F121212120B000080504040508003
:102B500000000F121212120B0000000048D00000FB
:102B600000000010101F10100000000040D00800EE
:102B700000000010101F10100000001048C81000C6
:102B800000000010101F10100000000050C01000C6
:102B900000000010101F101000000080544854E086
:102BA0000000000F1010100F0000D088485050880F
:102BB00000001F000000001F0000804048504080BF
:102BC00000000F101010100F00008040504840808F
:102BD00000000F101010100F000080504848508067
:102BE00000000F101010100F00009048485050883F
:102BF00000000F101010100F000080504040508057
:102C000000000F101010100F000000000000000066
:102C100000000404151504040000804040C06090CA
:102C200000006F181611100F0000C000081000C03F
:102C300000000F101010081F0000C000100800C096
:102C400000000F101010081F0000C010080810C06E
:102C500000000F101010081F0000C010000010C06E
:102C600000000F101010081F0000C000100800C066
:102C7000000020434C380E010000F88040404080A6
:102C800000007F081010100F0000C010000010C0DE
:102C9000000020434C380E010000002200250028CF
:102CA000002B002E00310034000201000005010855
:102CB000010B0100002100240027002A002D003014
:102CC00000330001010000040107010A01010210A4
:102CD0002020080810204010204080020102010836
:102CE00004020101020408102040808040201008E6
:102CF000040201800402018040201008040201083F
:102D0000040201010204081020408001020408109E
:102D1000204080050505050705080808080202028D
:102D2000020A0A0808040404040101010101010166
:102D3000010303030303030303040707070C0C0C3D
:102D40000C0C0C0C0C020202020606060606060615
:102D5000060B0B0B0B0B0B0B0B00002000230026AC
:102D60000029002C002F00320000010000030106A2
:102D700001090100000A0B02090C0D0E08070304EB
:102D80000100000000000000000000000000000042
:102D90000000000000000000000000000000001221
:102DA0001110000000000000000000000000000002
:102DB00000000000000000000000B94FB14F1124D6
:102DC0001FBECFEFD1E2DEBFCDBF00E00CBF18E0E9
:102DD000A0E0B2E0E4EAF6EB00E00BBF02C007902F
:102DE0000D92A23FB107D9F72EE0A2EFB8E001C0E3
:102DF0001D92A03EB207E1F716E1CEEDD6E100E06C
:102E000006C021970109802FFE010E941756CD3D73
:102E1000D10780E00807A9F70E94F23F0C94415BBC
:102E20000C940000FC01818D928D0895CF93DF9367
:102E30001F92CDB7DEB76983DC01ED91FC91028072
:102E4000F381E02D41E050E0BE016F5F7F4F1995A7
:102E50000F90DF91CF910895FC019485FB0184854B
:102E6000981303C081E0983008F080E00895CF9374
:102E7000DF931F92CDB7DEB76983DC01ED91FC9142
:102E80000280F381E02D41E050E0BE016F5F7F4F93
:102E900019950F90DF91CF910895FC018485958558
:102EA0000895FC0184899589089521EE33E0FC01A1
:102EB00031832083FB014089518962897389FC0138
:102EC00042835383648375830895DC01ED91FC9103
:102ED000048CF58DE02D199480E00895CF92DF9257
:102EE000EF92FF920F931F93CF93DF936C01EB014F
:102EF0007B01E40EF51E00E010E0CE15DF0561F069
:102F00006991D601ED91FC910190F081E02DC6010F
:102F10001995080F191FF1CFC801DF91CF911F91AB
:102F20000F91FF90EF90DF90CF900895FC0176878E
:102F300065870895DC01ED91FC91068CF78DE02DFD
:102F4000199591E089270895862F089581E08627B5
:102F5000089521E0FC018485883008F020E0822F6C
:102F6000089580E090E00895CF93DF93FC01808D79
:102F7000883028F4EF010E94CE2988E0888FDF9105
:102F8000CF9108950F931F93CF93DF93EC018B01A3
:102F9000888D883010F40E94CE29B80182E00E940A
:102FA000CF2D888F883030F41D870C871A8E198EAC
:102FB00081E001C080E0DF91CF911F910F910895D2
:102FC0000F931F93CF93DF93FC018485883068F4BF
:102FD000C52FD42F8F010E94D72B009749F421E0F1
:102FE00030E0F8013383228305C080E090E002C026
:102FF0008D2F9C2FDF91CF911F910F910895EF920C
:10300000FF920F931F93CF93DF937C0180917A0CF3
:10301000833311F4D4E001C0D8E00FEB1CE0C0E032
:10302000F801219131918F01F70184819581281751
:10303000390729F0CF5FDC13F3CF80E006C08C2F77
:103040000E94B42D8431B1F781E0DF91CF911F91BF
:103050000F91FF90EF900895CF93DF93EC018C8553
:103060008830C8F40E94B42D843181F0882371F037
:10307000883161F08C3161F4E881F9810084F18557
:10308000E02DCE01199521E0892B19F420E001C033
:1030900021E0822F01C080E0DF91CF910895FC01F3
:1030A0008485883010F40C947E2980E090E00895A7
:1030B000CF92DF92EF92FF92CF93DF93EC018C855A
:1030C000883038F50E94B3290E94CA3B6B017C010D
:1030D0008C850E94B42D8823D1F061E070E080E0FF
:1030E00090E00E94923B0E94CA3BAB01BC014C198C
:1030F0005D096E097F098D859E85A0E0B0E04817C7
:1031000059076A077B0720F38C850E94CE2988E047
:103110008C87DF91CF91FF90EF90DF90CF90089553
:10312000CF93DF93EC018C85883060F40E94B42D3E
:10313000873111F08C3131F48C850E94AC2B8115D4
:10314000984088F3DF91CF910895FC018485883001
:1031500010F40C94AC2B80E090E00895CF93DF93B3
:103160001F92CDB7DEB741E050E0BE016F5F7F4FE9
:10317000FC0184850E94472C181619061CF48981CD
:1031800090E002C08FEF9FEF0F90DF91CF910895F5
:10319000FC018485883010F40C94472C80E090E08A
:1031A0000895CF93DF93FC012485283018F08FEF2A
:1031B0009FEF0EC0EC010190F081E02D0084F185BD
:1031C000E02D1995892B99F38C850E94452990E073
:1031D000DF91CF910895CF92DF92EF92FF920F93FC
:1031E0001F93CF93DF93CDB7DEB7AF970FB6F894A9
:1031F000DEBF0FBECDBF8C016B017A01CE010196FF
:103200000E949D3981EE93E09BA78AA71CA61DA66C
:103210001EA61FA6D8011C968C91883060F40E94CF
:10322000B42D882321F0F80184850E94B32988E019
:10323000D8011C968C9380917A0D90917B0DA09172
:103240007C0DB0917D0D8EA39FA3A8A7B9A78B83FA
:103250009C83AD83BE8318861F82AE01465D5F4F9F
:10326000B601CE0101960E94D63B0097C1F0D8016D
:10327000ED91FC910684F785E02D81EE93E09DA30E
:103280008CA38CA59DA5AEA5BFA58EA39FA3A8A723
:10329000B9A7A701BE016C5D7F4FC8011995AF9614
:1032A0000FB6F894DEBF0FBECDBFDF91CF911F9157
:1032B0000F91FF90EF90DF90CF9008950F931F93A1
:1032C000CF93DF938C01EB010E94A4558883C80142
:1032D00001960E94A4558983CE01DF91CF911F9161
:1032E0000F910895CF92DF92EF92FF920F931F9369
:1032F000CF93DF93CDB7DEB72A970FB6F894DEBF32
:103300000FBECDBF20912002309121022130310526
:10331000E1F58C0185E99EE190937F0E80937E0E0E
:103320007F936F938DE498E09F938F938FE898E05D
:103330009F938F93CE0101966C019F938F930E9470
:1033400066580FB6F894DEBF0FBECDBF0130110531
:1033500039F0012B49F496E4E92E98E0F92E04C0E7
:1033600080E4E82E88E0F82E1092A30E84E080938B
:10337000A40E0E942E3EB6018AE69EE00E94073807
:10338000B7018AE69EE00E94A4372A960FB6F89409
:10339000DEBF0FBECDBFDF91CF911F910F91FF9088
:1033A000EF90DF90CF9008959F92AF92BF92CF920F
:1033B000DF92EF92FF920F931F93CF93DF93EC0175
:1033C0006B0180917A0C811111C01B821A8288EEE8
:1033D00093E0A0E0B0E08C839D83AE83BF8387EA57
:1033E00093E09983888388E08C8756C0833319F4EF
:1033F00034E0932E02C028E0922E8FEBE82E8CE072
:10340000F82E10E098E0B92EA12CD7012D913C9117
:10341000F6018481958128173907F9F4812F0E94DC
:10342000B42D082F873111F08C3159F4812F0E946F
:103430007E29892B71F40C3181F4812F0E94B329EC
:103440000CC0843141F0811108C0D7011D921C923B
:1034500004C0B12E02C0AA24A3941F5FB2E0EB0EF9
:10346000F11C9112D2CFA11008C0D601ED91FC91B0
:103470000084F185E02DC60119951B821A8288EE21
:1034800093E0A0E0B0E08C839D83AE83BF8387EAA6
:1034900093E099838883BC8688EE93E09E878D872E
:1034A000CE01DF91CF911F910F91FF90EF90DF90B0
:1034B000CF90BF90AF909F9008958F929F92AF92C0
:1034C000BF92CF92DF92EF92FF920F931F93CF9311
:1034D000DF93CDB7DEB72F970FB6F894DEBF0FBEE0
:1034E000CDBF20917A0C222361F1233319F434E00B
:1034F000E32E02C028E0E22E8A015B016C01BC01D0
:10350000CE01019651DF8FEB882E8CE0982EF12CA6
:10351000F401219131914F01F601848195812817A1
:10352000390751F48F2D0E94B42D873129F4A80159
:10353000B5018F2D0E94D72BF394EF10E9CFC8016E
:1035400002C080E090E02F960FB6F894DEBF0FBE69
:10355000CDBFDF91CF911F910F91FF90EF90DF9042
:10356000CF90BF90AF909F908F900895DA01909187
:103570007B0CE92FF0E0FE2FEE27E60FF71F90E01F
:10358000982F8827A901BD018E0F9F1F0C94C0267C
:1035900008958CBD9DBD0895EF92FF921F93CF9328
:1035A000DF931F921F92CDB7DEB77C01FC016481CF
:1035B000758181E20E94CF2D182F883000F5CE0151
:1035C00001960E94D02F89819A81E3DF812F0E948A
:1035D000A92B833189F462E070E0812F0E94B2262A
:1035E000F70184819581E12FF0E0EE0FFF1FE15498
:1035F000F34F9183808303C0812F0E94B3290F90E2
:103600000F90DF91CF911F91FF90EF9008950F934E
:103610001F93CF93DF931F921F92CDB7DEB7FC01AC
:1036200024852830C0F48C01CE0101960E94D02F51
:1036300089819A81AEDF22E030E0AE014F5F5F4FBB
:1036400060E170E0F801848591DF89819A81982793
:103650008927982702C080E090E00F900F90DF91BB
:10366000CF911F910F910895EF92FF920F931F93A7
:10367000CF93DF9300D01F92CDB7DEB78C017B01D3
:10368000FB018485883050F081EE93E0F80191834E
:10369000808312821382148215821EC0CE0101968D
:1036A0000E94D02F89819A8174DF24E030E0AE013E
:1036B0004F5F5F4F6CE070E0F701848557DF81EE6C
:1036C00093E0F8019183808389819A81AB81BC81E9
:1036D00082839383A483B583C8010F900F900F90CA
:1036E0000F90DF91CF911F910F91FF90EF90089570
:1036F0000F931F93CF93DF931F921F92CDB7DEB727
:10370000FC0124852830C0F48C01CE0101960E9472
:10371000D02F89819A813DDF22E030E0AE014F5FFA
:103720005F4F64E070E0F801848520DF89819A8131
:1037300098278927982702C080E090E00F900F908B
:10374000DF91CF911F910F910895AF92BF92CF92C9
:10375000DF92EF92FF920F931F93CF93DF931F920D
:103760001F92CDB7DEB78C016B015A01FC01848535
:10377000883058F40E94B42D882321F0F801848504
:103780000E94B32988E0F8018487F6018281938141
:10379000A481B5810097A105B10509F45AC08F3FF6
:1037A0009F4FAF4FBF4F09F454C060E070E081E21B
:1037B0000E94CF2DF82EF8018487F7E0F81708F45F
:1037C00048C0CE0101960E94D02F89819A81E1DE06
:1037D000A6014E5F5F4F24E030E06CE070E08F2D7B
:1037E0000E94292AB5018F2D0E94FE2A64E070E014
:1037F0008F2D0E94B2260E94CA3B6B017C01F8010A
:1038000084850E94B42D873139F18C3129F18823C8
:1038100001F10E94CA3BAB01BC014C195D096E0964
:103820007F09F80185859685A0E0B0E084179507AB
:10383000A607B70738F061E070E080E090E00E94F2
:10384000923BDDCFF80184850E94CE2988E0F80103
:10385000848780E090E002C081E090E00F900F90BC
:10386000DF91CF911F910F91FF90EF90DF90CF905C
:10387000BF90AF9008950F931F93CF93DF931F9244
:103880001F92CDB7DEB78C0181EE93E0F8019183F2
:1038900080831282138214821582CE0101960E94C7
:1038A000D02F89819A8175DEB8016E5F7F4F44E029
:1038B00050E08FE090E00E94C026C8010F900F906A
:1038C000DF91CF911F910F9108950C94AC550C94FA
:1038D000A45560E08DE00E94283B68EC70E080E039
:1038E00090E00E94923B61E08DE00E94283B68ECF2
:1038F00070E080E090E00E94923B60E08DE00E94EA
:10390000283B6CE271E080E090E00E94923B61E035
:103910008DE00E94283B6CE271E080E090E00E9424
:10392000923B60E08DE00E94283B60E971E080E01E
:1039300090E00E94923B61E08DE00C94283B60E0B7
:103940008DE00E94283B64E670E080E090E00E94F9
:10395000923B61E08DE00E94283B64E670E080E0ED
:1039600090E00E94923B60E08DE00E94283B64E67C
:1039700070E080E090E00E94923B61E08DE00E9468
:10398000283B64E670E080E090E00E94923B60E0BB
:103990008DE00E94283B64E670E080E090E00E94A9
:1039A000923B61E08DE00E94283B64E670E080E09D
:1039B00090E00E94923B60E08DE00E94283B64E62C
:1039C00070E080E090E00E94923B61E08DE00E9418
:1039D000283B64E670E080E090E00E94923B60E06B
:1039E0008DE00E94283B64E670E080E090E00E9459
:1039F000923B61E08DE00E94283B64E670E080E04D
:103A000090E00E94923B60E08DE00E94283B64E6DB
:103A100070E080E090E00E94923B61E08DE00E94C7
:103A2000283B64E670E080E090E00E94923B60E01A
:103A30008DE00C94283BCF92DF92EF92FF920F9390
:103A40001F93CF93DF93C2E5DEE082E390E0A0E036
:103A5000B0E088839983AA83BB8301E010E01987D3
:103A600008870E94CA3BC880D980EA80FB80DC01BD
:103A7000CB018C0D9D1DAE1DBF1D8C839D83AE8320
:103A8000BF83C8E4DEE081E090E0A0E0B0E088839E
:103A90009983AA83BB83198708870E94CA3B088140
:103AA00019812A813B81DC01CB01800F911FA21F6C
:103AB000B31F8C839D83AE83BF83DF91CF911F9112
:103AC0000F91FF90EF90DF90CF900895EF92FF92CB
:103AD0000F931F93CF93DF93CDB7DEB7C956D109AC
:103AE0000FB6F894DEBF0FBECDBF182F092F7B0194
:103AF00060E279E0CE0101960E9450580F931F9327
:103B000081E998E09F938F938E010B591F4F1F936C
:103B10000F930E946658B801CE0101960E94455845
:103B2000B701CE0101960E94552F0F900F900F9074
:103B30000F900F900F90C759DF4F0FB6F894DEBF6C
:103B40000FBECDBFDF91CF911F910F91FF90EF90EE
:103B500008950F931F93CF93DF938C01EB018FECAC
:103B60009CE00E947F3E00331105D9F4FE01EE0F68
:103B7000FF1FE259FD4F61E080810E94283BFE015A
:103B8000E050FE4F81E08083219669E478E0CE0129
:103B90009DDFBE0180E090E0DF91CF911F910F91FA
:103BA000A1CB01331105B9F4FE01EE0FFF1FE2595D
:103BB000FD4F60E080810E94283B8E010F5F1F4F08
:103BC00063E478E0C80182DFB80181E090E08ADB3D
:103BD000C050DE4F1882DF91CF911F910F91089551
:103BE000CF93DF931F921F92CDB7DEB7880F991F37
:103BF000BE016F5F7F4F89599F4F60DB69817A817A
:103C00006115710571F061507109FB01E050FE4FC3
:103C10008081811103C080E390E002C081E390E0E5
:103C200098DF0F900F90DF91CF910895CF93DF939E
:103C3000EC0164E578E08FEC9CE00E940738BE015F
:103C40008FEC9CE00E947F3E60E678E08FEC9CE089
:103C50000E9407386091F4087091F5088FEC9CE0A1
:103C60000E947F3E8091F4089091F508019709F039
:103C700078C0209761F480910002811103C080E335
:103C800090E002C081E390E060E070E067C0C13086
:103C9000D10561F480910102811103C080E390E0BD
:103CA00002C081E390E061E070E058C0C230D1050D
:103CB00061F480910202811103C080E390E002C0B0
:103CC00081E390E062E070E049C0C330D10561F467
:103CD00080910302811103C080E390E002C081E380
:103CE00090E063E070E03AC0C430D10561F48091A7
:103CF0000402811103C080E390E002C081E390E000
:103D000064E070E02BC0C530D10561F480910502FC
:103D1000811103C080E390E002C081E390E065E0A0
:103D200070E01CC0C630D10561F48091060281119B
:103D300003C080E390E002C081E390E066E070E0C1
:103D40000DC0279771F480910702811103C080E3B1
:103D500090E002C081E390E067E070E0DF91CF91F6
:103D6000F8CEDF91CF910895CF92DF92EF92FF923C
:103D70000F931F93CF93DF93CDB7DEB72A970FB67C
:103D8000F894DEBF0FBECDBF2091200230912102FA
:103D900021303105E1F58C0185E99EE190937F0E9C
:103DA00080937E0E7F936F938AE698E09F938F9324
:103DB0008FE898E09F938F93CE0101966C019F93BB
:103DC0008F930E9466580FB6F894DEBF0FBECDBF2A
:103DD0000130110539F0012B49F496E4E92E98E001
:103DE000F92E04C080E4E82E88E0F82E1092A30E8D
:103DF00082E08093A40E0E942E3EB6018AE69EE0E9
:103E00000E940738B7018AE69EE00E94A4372A96EE
:103E10000FB6F894DEBF0FBECDBFDF91CF911F91DB
:103E20000F91FF90EF90DF90CF9008950F931F9325
:103E3000CF93DF931F921F92CDB7DEB78C01BE01E7
:103E40006F5F7F4F89EC90E039DA093C110571F41E
:103E500089819A818130910549F490937B098093FF
:103E60007A091092F5081092F4080AC010927B09A2
:103E700010927A0981E090E09093F5088093F4081D
:103E800062E778E08FEC9CE00E94073860917A0945
:103E900070917B098FEC9CE00E947F3E0F900F9009
:103EA000DF91CF911F910F9108952F923F924F92E2
:103EB0005F926F927F928F929F92AF92BF92CF92BA
:103EC000DF92EF92FF920F931F93CF93DF93CDB7C3
:103ED000DEB7CA56D1090FB6F894DEBF0FBECDBF0C
:103EE00087E6C82ED12CE12CF12C9BEA292E94E0F8
:103EF000392E26E6422E29E0522E3FE4632E34E08E
:103F0000732E4BE8A42E48E0B42E50E7852E5BE0DC
:103F1000952EC601DCDC182F67EA75E0CE018B59BF
:103F20009F4F0E94023763E878E0CE018B599F4F84
:103F30000E943B3668E678E0CE018B599F4F0E9485
:103F40003B36612F70E0CE018B599F4F0E94A12F0D
:103F500068EB75E0CE018B599F4F0E943B36FF9274
:103F6000EF923F922F925F924F927F926F92BF9209
:103F7000AF929F928F920E946658AB960EAD1FAD86
:103F8000AB970FB6F894DEBF0FBECDBF011511057C
:103F900011F4198215C00336110510F003E610E084
:103FA000A7966EAD7FADA797A801CE0101960E949E
:103FB0005758E1E0F0E0EC0FFD1FE00FF11F108219
:103FC000BE016F5F7F4F80E79BE00E94552FCE01BF
:103FD0008B599F4F0E94F5369FEFE91AF90A82E04C
:103FE000C80ED11C90E2E916F10409F092CFC6592F
:103FF000DF4F0FB6F894DEBF0FBECDBFDF91CF917C
:104000001F910F91FF90EF90DF90CF90BF90AF90F6
:104010009F908F907F906F905F904F903F902F90E8
:104020000895EF92FF920F931F93CF93DF931F9208
:104030001F92CDB7DEB78C017B01BE016F5F7F4F52
:104040003DD989819A81E816F90621F06E2DC801C3
:104050003CDC2BDF0F900F90DF91CF911F910F91E0
:10406000FF90EF9008958F929F92AF92BF92EF9240
:10407000FF920F931F93CF93DF93CDB7DEB768976F
:104080000FB6F894DEBF0FBECDBF8C017B014A0195
:1040900061EF78E0CE010D960E94023757018E0C39
:1040A0009F1CA814B90479F0F50181915F018983FF
:1040B0001A8241E050E0BE016F5F7F4FCE010D9646
:1040C0000E940E36EECFBE01635F7F4F84E89DE015
:1040D0000E94E036B801CE0143960E940237F801F3
:1040E00001900020E9F73197CF01801B910B2091BF
:1040F000F2083091F308821B930B9C012751310980
:104100002230310508F066C0E3E4F9E001900020B8
:10411000E9F73197E354F940AF014C5F5F4F9F01DE
:104120002A5F3F4FBE016D5E7F4FCE0101960E9418
:104130001637CE0101960E9403364B015C01CE0179
:1041400001960E94F536E8EFF8E001900020E9F7CB
:1041500031978F01085F184098012250310940E0E3
:1041600050E0BE016D5E7F4FCE0101960E94163772
:1041700098012E5F3F4FA80141505109BE016D5E6D
:104180007F4FCE0107960E941637CE0107960E94F8
:10419000F53669817A818BE99BE00E945058B40121
:1041A00061507109F7018081082E000C990B823350
:1041B000910559F4FB01E050FE4F8081811103C04D
:1041C00080E390E002C081E390E0C3DC34DCCE0108
:1041D0000196EFC08C31910509F05BC081E090E061
:1041E0009093F7088093F60868EE73E080E090E023
:1041F0000E94923B64E978E08FEC9CE00E94A43737
:104200000E94743164E87DE0CE0101960E94FA3686
:10421000ED80FE8000E010E00E151F05BCF48D81DE
:104220009E810817190720F4E981FA81309729F453
:104230001092980BE8E9FBE002C0E00FF11F6081EB
:10424000C801C79642DB0F5F1F4FE6CF60E0C70192
:10425000C7963BDBCE0101960E94F53662E980E00D
:1042600090E033DB67EA78E08FEC9CE00E94A437B3
:1042700098E288E10FB6F894A895809360000FBE8D
:10428000909360006CED75E080E090E00E94923BBE
:1042900092C04E9709F08FC0E8EFF8E0019000203F
:1042A000E9F731978F01085F1840980122503109D2
:1042B00040E050E0BE016D5E7F4FCE0107960E9448
:1042C000163798012E5F3F4FA80141505109BE019A
:1042D0006D5E7F4FCE0101960E941637CE0101968A
:1042E0000E9403364B015C018B01CE0101960E94B6
:1042F000F53681E090E09093F7088093F6086FEB35
:1043000078E08FEC9CE00E94A437B701CE010196C3
:104310000E9402376FED78E08FEC9CE00E94073836
:104320000E947431C401845691098536910570F458
:104330008091840D9091850D0E9475529401220FF9
:10434000331FC901815691096CDE29C0B401685C34
:1043500071096631710518F5093C110599F48091D0
:10436000840D9091850D0E94755270939A0B609305
:10437000990B6230710598F489EC90E052DE89EC7B
:1043800090E00CC00A3C110551F46091990B7091BA
:104390009A0B8AEC90E045DE8AEC90E047DD1092C3
:1043A000F7081092F608CE0101960E94F536CE016C
:1043B00007960E94F536CE0143960E94F536CE014F
:1043C0000D960E94F53668960FB6F894DEBF0FBEC4
:1043D000CDBFDF91CF911F910F91FF90EF90BF90D4
:1043E000AF909F908F9008950895089585ED8093E4
:1043F000BC008091BC0084FDFCCF1092520C08954B
:104400004091030C262F30E0240F311D213231055D
:10441000DCF42091520C2430C9F4FC0180E090E0DF
:10442000861758F43091030C2191DC01AD51B44F43
:10443000A30FB11D2C930196F3CF8091030C680F4D
:104440006093030C80E0089581E0089582E0089570
:104450000895E0912B0C80912A0CE81730F4F0E0DD
:10446000ED53F44F808190E008958FEF9FEF089512
:1044700090912B0C80912A0C981750F4E92FF0E0C2
:10448000ED53F44F208130E09F5F90932B0C02C0DE
:104490002FEF3FEFC901089580912A0C90E0209101
:1044A0002B0C821B91090895CF92DF92EF92FF921D
:1044B0000F931F93CF93DF937C01CB018A0120914F
:1044C000530C222389F0EB016B01C40ED51ECC15D1
:1044D000DD0561F06991D701ED91FC910190F081CA
:1044E000E02DC7011995F3CF642F8ADFC801DF9152
:1044F000CF911F910F91FF90EF90DF90CF90089593
:10450000CF93DF931F92CDB7DEB769832091530C11
:104510002223D1F02091760C203240F021E030E0CF
:10452000FC013383228380E090E014C08091540C1E
:10453000E82FF0E0EB5AF34F998190838F5F8093DF
:10454000540C8093760C04C061E0CE01019658DFD4
:1045500081E090E00F90DF91CF910895FC012081E0
:104560002EBD9B012150310941F051810DB407FE50
:10457000FDCF4EB55EBD4193F5CF61507109FC0191
:10458000E60FF71F0DB407FEFDCF8EB580830895AB
:10459000CF93DF93EC01862F683109F45EC058F4A5
:1045A000B901843179F0873109F0CDC050E08CE653
:1045B0009DE07ADF50C0693109F472C0603209F4BD
:1045C0004AC0C1C08C859D85AE85BF85892B8A2B4D
:1045D0008B2B71F4E881F981A585B0E020EA36E8FB
:1045E00041E050E00E94D6556C877D878E879F877B
:1045F00010922B0C10922A0C1092540C1092760CE4
:104600001092520C81E08093510C10922C0C61E0BE
:1046100084E10E94283B61E085E10E94283B809173
:10462000B9008E7F8093B9008091B9008D7F80930F
:10463000B90088E48093B80085E48093BC0084EFDF
:1046400091E29093290C8093280C85EF91E290934E
:10465000270C8093260C81E077C02C853D854E8504
:104660005F8560E074E284EF90E00E94E655DA0135
:10467000C9014097A109B109B695A7959795879566
:104680008093B8008E8990E09595879591E09093FE
:10469000530C8093750C1092540C1092760CDBCF57
:1046A0002091760C213208F047C08091520C811184
:1046B000FCCF8091750C92E09093520C91E0909316
:1046C000510C9FEF9093500C10924F0C20934E0C76
:1046D000E5E5FCE0AEE2BCE090E0291721F0319185
:1046E0003D939F5FFACF10922D0C90912D0C880F67
:1046F000892B80932D0C80912C0C813061F41092C9
:104700002C0C80912D0C8093BB008091BC0083FD0C
:10471000F8CF85EC01C085EE8093BC008091520CEF
:104720008230E1F38091500C8F3F31F08091500C3A
:10473000803211F08091500C1092540C1092760C33
:104740001092530C88CF80E0DF91CF9108950F93A2
:104750001F93CF93DF93EC01862F642F8C3270F47C
:104760008A3208F05DC0883289F0893209F042C08F
:1047700070E080E090E00E94923B52C08D32D1F018
:10478000C8F194EB980F923020F134C08E01015E95
:104790001F4FD0E0F80181918F018F3F39F0D03168
:1047A00010F461E001C062E00E94563BDF5FD63149
:1047B00089F736C0433018F082E090E002C085E00F
:1047C00090E0880F991F880F991F05970197F1F7BF
:1047D00027C08F73C80FD11D411107C061E08F8DB5
:1047E0000E94563B60E08F8D11C062E08F8D0E9469
:1047F000563B16C08034B0F0982F9F73FE01E90F2E
:10480000F11D878D8F3F61F0903118F40E94283B95
:1048100007C00E94003B21E0892B09F420E02A8F89
:1048200081E001C080E0DF91CF911F910F91089549
:104830002F923F924F925F926F927F928F929F92B0
:10484000AF92BF92CF92DF92EF92FF920F931F939E
:10485000CF93DF93CDB7DEB72D970FB6F894DEBFB9
:104860000FBECDBFDC0154962D913C915597DA9641
:104870000C91DA97F9016A3049F43396E491E00F2C
:10488000DA96EC93DA97D9961C9241C0329624902E
:10489000D9965C90D9975C0184E0A80EB11CD490A5
:1048A00031961491352C3D0C100F81E0850D381692
:1048B00010F4DD24D394C62E7D01612CDE01119607
:1048C0004D01462C752C242DA4016C2DC5010E9490
:1048D000A83A7C860D87B1E0BB879A868986D70186
:1048E0001896ED91FC9119979E01275F3F4F41E08B
:1048F0006FE0C501199543947394731420F30F5F0F
:104900006D0C0117F0F2F70181AD820D81AF81E0EE
:1049100090E02D960FB6F894DEBF0FBECDBFDF91AD
:10492000CF911F910F91FF90EF90DF90CF90BF90AC
:10493000AF909F908F907F906F905F904F903F903F
:104940002F900895EF92FF920F931F93CF93DF93D1
:10495000EC018B017A010E94CA3BFE01E857FF4F30
:1049600060837183828393838C819D81DC01ED91CF
:10497000FC910280F381E02DA701B801DF91CF9176
:104980001F910F91FF90EF9019941F93CF93DF9396
:10499000EC01162F0E94CA3BFE01E857FF4F6083CF
:1049A0007183828393838C819D81DC01ED91FC91E5
:1049B0000190F081E02D612FDF91CF911F9119942B
:1049C000DC011696ED91FC91179720E030E040E075
:1049D00069E11994DC011696ED91FC91179720E09E
:1049E00030E040E068E119949A01DC011696ED91FF
:1049F000FC911797462F67E11994EF92FF920F935E
:104A00001F93CF93DF931F92CDB7DEB77C018B014D
:104A1000D8016C916731E1F078F4653198F1F801D3
:104A200041814983D7011696ED91FC91179720E0BB
:104A300030E0C701199523C06A31A0F06E3F11F52F
:104A4000F8014181498369E2C7010E94673817C0B4
:104A5000F80181818983AE014F5F5F4F61E0C7013B
:104A6000C3DF0DC00F5F1F4FD7011696ED91FC916C
:104A7000179720E030E040E0C7011995C9CF0E5FDD
:104A80001F4FC6CF0F90DF91CF911F910F91FF90D5
:104A9000EF900895462FDC011696ED91FC91179743
:104AA00020E030E066E11994462FDC011696ED9186
:104AB000FC91179720E030E065E11994DC0118962D
:104AC000ED91FC91199720E030E040E069E1199404
:104AD000DC011896ED91FC91199720E030E040E060
:104AE00068E11994CF93DF931F92CDB7DEB7698346
:104AF000BE016F5F7F4F0E94F73A0F90DF91CF9119
:104B000008951F920F920FB60F9211240BB60F92B9
:104B10002F933F934F935F936F937F938F939F93C5
:104B2000AF93BF93EF93FF938091B900887F803656
:104B300009F49CC068F5883209F45BC090F48031B8
:104B400009F454C038F4882309F4F6C0883009F415
:104B50004DC0F5C0883109F44CC0803209F45DC005
:104B6000EEC0803409F468C048F4803309F455C0BD
:104B7000883309F0E4C08093500CD8C0803509F424
:104B80004FC0883509F45DC0883409F0D8C0D6C05C
:104B9000883909F4C7C0A8F4883709F467C038F425
:104BA000883609F463C0803709F460C0C8C088380B
:104BB00009F4B8C0803909F45FC0803809F0BFC07B
:104BC0005BC0803B09F486C038F4803A09F466C0C3
:104BD000883A09F47FC0B3C0803C09F4A7C0883C80
:104BE00009F4A4C0883B09F48AC0A9C080912D0CA7
:104BF00010C090914F0C80914E0C981770F5E09179
:104C00004F0C81E08E0F80934F0CF0E0E25DF34F8C
:104C100080818093BB0085EC86C08093500C8EC051
:104C2000E0914F0C81E08E0F80934F0C8091BB0080
:104C3000F0E0E25DF34F808390914F0C80914E0C39
:104C40006EC0E0914F0C81E08E0F80934F0C8091ED
:104C5000BB00F0E0E25DF34F80838091510C811145
:104C60006DC081E080932C0C84EA61C083E0809366
:104C7000520C1092250CCFCF8091250C803208F079
:104C800051C0E091250C81E08E0F8093250C80911E
:104C9000BB00F0E0EB5FF34F8083BDCF85EC8093EA
:104CA000BC001092520C8091250C803230F4E091BF
:104CB000250CF0E0EB5FF34F10826091250C70E063
:104CC000E091260CF091270C85E09CE0199510925C
:104CD000250C35C084E08093520C1092040C109285
:104CE000030CE091280CF091290C19958091030C8C
:104CF000811105C081E08093030C1092E30BE091D9
:104D0000040C81E08E0F8093040CF0E0ED51F44F21
:104D100080818093BB009091040C8091030C9817C4
:104D200008F479CF85E88093BC0009C085EC8093B6
:104D3000BC001092520C03C01092500C57DBFF9134
:104D4000EF91BF91AF919F918F917F916F915F9103
:104D50004F913F912F910F900BBE0F900FBE0F9070
:104D60001F901895CF93C82F462F61E070E0B7D4FD
:104D700061E070E08C2FD0D48111FACFCF910895EB
:104D8000AF92BF92CF92DF92EF92FF920F931F9359
:104D9000CF93DF9300D01F92CDB7DEB78C016B01AC
:104DA0007A0180917A0C8333C1F45B016801C40EEF
:104DB000D51E0C151D0509F455C031D28FE05ED209
:104DC000812F5CD2802F5AD20F5F1F4F80E056D2C6
:104DD000F50181935F0119D2ECCF8433D1F41FD256
:104DE00019830A838F2D8F778B83EC8264E070E0C8
:104DF000CE010196B3DBA70160E070E0C6010E941E
:104E00003E58E114F10419F0B701C601A7DBFDD14A
:104E100029C005D20F3F110509F020F419820A8339
:104E20001B821DC017FD0BC019820A8333E0169543
:104E300007953A95E1F7007E08600B8310C0C80122
:104E400026E0969587952A95E1F719830A83807E57
:104E50000115104C10F4806101C088618B8363E000
:104E600070E0C6CFC7010F900F900F900F90DF91A9
:104E7000CF911F910F91FF90EF90DF90CF90BF9057
:104E8000AF900895AF92BF92CF92DF92EF92FF92D0
:104E90000F931F93CF93DF93CDB7DEB728970FB64D
:104EA000F894DEBF0FBECDBF8C017B016A018091FB
:104EB0007A0C8333B1F45801A40EB51E0A151B05F4
:104EC00009F47DC0ACD180EFD9D1812FD7D1802F0B
:104ED000D5D10F5F1F4FF70181917F01CFD195D1C0
:104EE000EDCF8433F9F49BD119830A838D2D80682B
:104EF0008B83CC8264E070E0CE0101962FDB8701CA
:104F00000C0D1D1DE016F10659F0F70181917F018E
:104F1000B5D1F8CFB6016D5F7F4FCE0101961EDB94
:104F200074D14DC07CD10F3F110509F020F41982D6
:104F30000A8384E01CC017FD0BC019820A8333E08A
:104F4000169507953A95E1F7007E0C600B8310C02B
:104F5000C80126E0969587952A95E1F719830A837B
:104F6000807E0115104C10F4846101C08C618B832C
:104F700026E0C216D10498F420E0822F90E08C1530
:104F80009D0540F6E4E0F0E0EC0FFD1FE80FF91F8F
:104F9000D701A80FB91F8C9180832F5FEECF63E0FC
:104FA00070E0CE010196DADA87010C0D1D1DF701C4
:104FB00081917F0163D1E016F106C9F7B1CFC60137
:104FC00028960FB6F894DEBF0FBECDBFDF91CF910C
:104FD0001F910F91FF90EF90DF90CF90BF90AF9017
:104FE0000895CF93DF9380E837D1C4E1D0E022D198
:104FF000882351F061E070E080E090E00E94923BF5
:105000002197A9F780E001C081E0DF91CF91089559
:1050100020917A0C90E0233311F40C9601C048964D
:10502000982F990F990F990F80E00895CF93DF93F0
:105030001F92CDB7DEB76983DC01ED91FC91028050
:10504000F381E02D41E050E0BE016F5F7F4F199585
:105050000F90DF91CF910895EF92FF921F93CF931E
:10506000DF931F921F92CDB7DEB7182F22E030E0FA
:10507000AE014F5F5F4F60E270E00E94B61AE980B8
:10508000FA80FE24EF24FE2422E030E0AE014F5FE0
:105090005F4F60E270E0812F0E94B61A89819A8189
:1050A000982789279827E816F90611F07C01ECCF9C
:1050B00087E0189FF0011124E957F34FF582E4824D
:1050C000C7010F900F90DF91CF911F91FF90EF904C
:1050D0000895FF920F931F93CF93DF931F921F9218
:1050E000CDB7DEB7F82E22E030E0AE014F5F5F4F64
:1050F00066E270E00E94B61A09811A811027012722
:10510000102722E030E0AE014F5F5F4F66E270E0B3
:105110008F2D0E94B61A89819A819827892798270E
:105120000817190711F08C01ECCFC8010F900F90F0
:10513000DF91CF911F910F91FF900895AF92BF9291
:10514000CF92DF92EF92FF920F931F93CF93DF9353
:10515000CDB7DEB7AF970FB6F894DEBF0FBECDBFA9
:105160008C015B016A01CE0101960E949D3981EE9E
:10517000E82E83E0F82EFBA6EAA61CA61DA61EA616
:105180001FA680917A0D90917B0DA0917C0DB0911E
:105190007D0D8EA39FA3A8A7B9A78B839C83AD8306
:1051A000BE8318861F82AE01465D5F4FB501CE01FA
:1051B00001960E94D63B81309105B1F4D801ED9162
:1051C000FC910488F589E02DFDA2ECA28CA59DA59B
:1051D000AEA5BFA58EA39FA3A8A7B9A7A601BE0190
:1051E0006C5D7F4FC8011995AF960FB6F894DEBF7E
:1051F0000FBECDBFDF91CF911F910F91FF90EF9028
:10520000DF90CF90BF90AF900895E091780CF0912F
:10521000790C90818091770C892B80830895E0919F
:10522000780CF091790C90818091770C809589238E
:1052300080830895CF93DF931F92CDB7DEB741E00F
:1052400050E0BE016F5F7F4F80E090E099DD898183
:105250000F90DF91CF910895CF93DF931F92CDB739
:10526000DEB7898341E050E0BE016F5F7F4F80E091
:1052700090E008DE0F90DF91CF9108958EBD000081
:105280000DB407FEFDCF8EB508951F93CF93DF9326
:105290001F921F92CDB7DEB7182FCE01019680D690
:1052A00089819A810E94C91A812FB2DE27E0129F5C
:1052B000F0011124E957F34F22813381377041E027
:1052C00050E0BE016F5F7F4F820F931F59DD0E9438
:1052D000C81A89810F900F90DF91CF911F91089587
:1052E000FC01808D883038F4218D328D232B19F00C
:1052F000CCDF90E008958FEF9FEF0895EF92FF923B
:105300000F931F93CF93DF931F921F92CDB7DEB7FA
:10531000482F87E0489F90011124F901E957F34F86
:105320007F01808191810097A9F4142FCE0101960D
:1053300037D689819A810E94C91A812FCADE8C01D1
:105340000E94C81AF70186819801281B3109C901FA
:10535000318320830F900F90DF91CF911F910F9198
:10536000FF90EF9008951F93CF93DF931F921F92AA
:10537000CDB7DEB7182FCE01019612D689819A815A
:105380000E94C91A68E070E0812FECDC0E94C81A04
:105390000F900F90DF91CF911F9108951F93CF939E
:1053A000DF931F921F92CDB7DEB7182FCE01019663
:1053B000F7D589819A810E94C91A60E170E0812F36
:1053C000D1DC0E94C81A0F900F90DF91CF911F91EE
:1053D0000895CF92DF92EF92FF920F931F93CF9396
:1053E000DF9300D000D0CDB7DEB78C016B017A011E
:1053F000FC01808D883008F4D1DF81EE93E09A8340
:105400008983F60182819381A481B5818B839C83FA
:10541000AD83BE83B701CE0101960E94BD39F8016C
:10542000808F883030F4F586E486128E118E81E00C
:1054300001C080E026960FB6F894DEBF0FBECDBF48
:10544000DF91CF911F910F91FF90EF90DF90CF9060
:105450000895DA0190917B0CE92FF0E0FE2FEE2702
:10546000E60FF71F90E0982F8827A901BD018E0F46
:105470009F1F08CD7F928F929F92AF92BF92CF9243
:10548000DF92EF92FF920F931F93CF93DF931F92C0
:105490001F92CDB7DEB7782E8B014A01590122E069
:1054A00030E0AE014F5F5F4F64E270E00E94B61AD9
:1054B000E980FA80FE24EF24FE24E00EF11E97011D
:1054C000377040917A0C072D10E0C801433311F476
:1054D000089601C04096982F8827990F990F990F29
:1054E000820F931F473319F4A501B4011FC0A9010E
:1054F0004A0D5B1D41305840B8F360E078E06B0125
:10550000C21AD30AA601B401BDDCA5014C195D097C
:10551000B4016C0D7D1D80917A0C833329F5085FF1
:105520001F4F902F990F990F990F80E0ABDCEA0C79
:10553000FB1CF982EA8222E030E0AE014F5F5F4F50
:1055400064E270E0872D85DF0F900F90DF91CF919F
:105550001F910F91FF90EF90DF90CF90BF90AF9091
:105560009F908F907F900895005F1F4FDACF7F92BA
:105570008F929F92AF92BF92CF92DF92EF92FF9263
:105580000F931F93CF93DF931F921F92CDB7DEB778
:105590007C014B01742EC52EFC01A688B788D08CE7
:1055A000CE010196FDD489819A810E94C91A8D2D60
:1055B00053DD072D1C2D8017910708F48C019801ED
:1055C000A401B5018D2D56DF0E94C81AF701868906
:1055D0009789800F911F978B868BC8010F900F9032
:1055E000DF91CF911F910F91FF90EF90DF90CF90BF
:1055F000BF90AF909F908F907F900895CF93DF934F
:105600001F921F92CDB7DEB779836A8322E030E024
:10561000AE014F5F5F4F60E170E01BDF0F900F90B6
:10562000DF91CF910895CF93DF931F921F92CDB753
:10563000DEB779836A8322E030E0AE014F5F5F4FCF
:1056400064E070E006DF0F900F90DF91CF91089536
:10565000DF92EF92FF920F931F93CF93DF931F92EE
:105660001F92CDB7DEB7FB01DC0157961C921E924C
:1056700056972281211109C02381211106C024815E
:10568000211103C025812223F1F041155105D9F0E4
:105690007A018F01FC01D08CCE01019681D48981E1
:1056A0009A810E94C91AA8014E5F5F4F24E030E042
:1056B0006CE070E08D2DCDDEB7018D2D9FDF0E9457
:1056C000C81A81E001C080E090E00F900F90DF9158
:1056D000CF911F910F91FF90EF90DF900895CF939E
:1056E000DF931F92CDB7DEB790917B0C292F30E06E
:1056F000322F2227260F371F90E0982F88274983C3
:1057000041E050E0BE016F5F7F4F820F931FBADB15
:105710000F90DF91CF910895CF93DF931F92CDB774
:10572000DEB790917B0C292F30E0322F2227260FF5
:10573000371F90E0982F882741E050E0BE016F5F4F
:105740007F4F820F931F1CDB89810F90DF91CF91D8
:10575000089563E070E0E0CFFF920F931F93CF9323
:10576000DF931F921F92CDB7DEB7F82ECE010196C0
:1057700017D489819A810E94C91A8F2D6DDC8C0102
:105780008F2DE7DFF82E0E94C81A87E1F81631F056
:105790008CE1F81619F080E090E001C0C8010F908C
:1057A0000F90DF91CF911F910F91FF900895AF92CD
:1057B000BF92CF92DF92EF92FF920F931F93CF93FE
:1057C000DF931F921F92CDB7DEB7F82E6B018A01CF
:1057D0004130584010F000E018E0CE010196E0D3CF
:1057E00089819A810E94C91A8F2D36DC5C018F2D28
:1057F000B0DFE82E0E94C81A87E1E81619F08CE1A4
:10580000E81204C0A016B10640F302C000E010E0A8
:10581000CE010196C5D389819A810E94C91A980147
:10582000A60160E070E08F2D25DE60E270E08F2D34
:1058300099DA62E070E08F2D6FDF84FD13C08F2D49
:1058400088DF811105C00E94C81A80E090E012C074
:105850000E94C81ACE010196A3D389819A810E9421
:10586000C91AE7CF40E162E070E08F2D38DF0E9477
:10587000C81AC8010F900F90DF91CF911F910F911F
:10588000FF90EF90DF90CF90BF90AF9008954F9230
:105890005F927F928F929F92AF92BF92CF92DF9250
:1058A000EF92FF920F931F93CF93DF931F921F925C
:1058B000CDB7DEB7782E6B014A01A82EB12C27E0B8
:1058C000829FC0011124AC014957534F7A01FA015C
:1058D00000811181CE01019663D389819A810E9452
:1058E000C91A081519054CF4872DF3DBF701268139
:1058F0008C01021B1109118300830115110591F41C
:10590000872D27DF843109F47AC0882309F477C012
:1059100001E010E08C3111F400E010E011950195E8
:1059200011096DC0801691060CF4840187E08A9DF0
:10593000F0018B9DF00D1124E957F34FE280F380C5
:10594000C114D10439F12701F7E05F22872D60DB14
:10595000840D951D20917A0C273319F4A801B60106
:1059600018C09801240D351D21303840B8F320E0CF
:1059700038E0490184189508A401B60101DA26012E
:10598000480C591C6801C818D908872D41DBA601AD
:10599000B201F6D9E00EF11E87E08A9DF0018B9DE1
:1059A000F00D1124E957F34FF382E2828081918157
:1059B000801B910B918380832681A801420F511D8A
:1059C0004A3F510510F4892BC9F487E08A9DF00104
:1059D0008B9DF00D1124E957F34F1682F982EA826C
:1059E00022E030E0AE014F5F5F4F68E270E0872D4C
:1059F00030DD60E470E0872DB5D901C046830E9498
:105A0000C81AC8010F900F90DF91CF911F910F918D
:105A1000FF90EF90DF90CF90BF90AF909F908F90CE
:105A20007F905F904F900895CF93DF93FC01218D7D
:105A3000328D2115310519F48FEF9FEF10C0EC0165
:105A40004217530708F0A901888D21DF181619069F
:105A50009CF7298D3A8D281B390B3A8F298FDF91BE
:105A6000CF9108950F931F93CF93DF931F92CDB7DC
:105A7000DEB7FC01218D328D232B59F08C0141E0E2
:105A800050E0BE016F5F7F4F808D01DF1816190651
:105A90001CF08FEF9FEF08C0F801818D928D019768
:105AA000928F818F898190E00F90DF91CF911F912C
:105AB0000F9108950F931F93CF93DF93CDB7DEB768
:105AC00028970FB6F894DEBF0FBECDBF8C01D8016A
:105AD00059964D915C915A974115510551F0ED91B0
:105AE000FC91048CF58DE02D60E070E0C801199503
:105AF000EECFF801808D02DC892B49F148E050E0BF
:105B0000BE016F5F7F4FD80158968C91C0DE18168A
:105B10001906FCF4D801509684E0FE0131960190FC
:105B20000D928A95E1F78D8190E0982F88272E813C
:105B3000820F911DF801958B848B8F8190E0982FB7
:105B400088272885820F911D928F818F02C080E067
:105B500090E028960FB6F894DEBF0FBECDBFDF9160
:105B6000CF911F910F9108951F93CF93DF931F92B1
:105B70001F92CDB7DEB7182FCE01019611D28981C1
:105B80009A810E94C91A812FE4DD182F0E94C81A39
:105B9000812F0F900F90DF91CF911F9108958F92D9
:105BA0009F92BF92CF92DF92EF92FF920F931F933B
:105BB000CF93DF93CDB7DEB72A970FB6F894DEBF49
:105BC0000FBECDBF90917A0C992309F490C0933306
:105BD00019F028E0B22E02C094E0B92E6B01082F14
:105BE000CE010196DDD189819A810E94C91A9E0158
:105BF0002F5F3F4F7901490110E0812FAADDF401A9
:105C000081934F018823C1F01F5FB112F6CF10E0DE
:105C1000F70191917F019D3159F0983149F09A51E6
:105C2000923030F01F5FB112F3CF0E94C81A5FC0EC
:105C300060E170E0812F96D8E12EF12CF701EE0F94
:105C4000FF1FE154F34F1182108283EE93E001971E
:105C5000F1F7402F60E070E0812F41DD4FEF62E00F
:105C600070E0812F3CDDC114D10411F0B60113C0E6
:105C7000809138029091390201968115F0EC9F07CE
:105C800010F480E090EC9093390280933802609198
:105C9000380270913902812FC6DC61E070E0812FFB
:105CA00061D827E02E9DC0012F9D900D11249C01ED
:105CB0002957334F7901F9011182108222E030E037
